{
  "_format": "hh-sol-artifact-1",
  "contractName": "LedgerAnchor",
  "sourceName": "contracts/LedgerAnchor.sol",
  "abi": [
    {
      "inputs": [],
      "stateMutability": "nonpayable",
      "type": "constructor"
    },
    {
      "anonymous": false,
      "inputs": [
        {
          "indexed": false,
          "internalType": "string",
          "name": "newHash",
          "type": "string"
        },
        {
          "indexed": false,
          "internalType": "uint256",
          "name": "timestamp",
          "type": "uint256"
        }
      ],
      "name": "HashAnchored",
      "type": "event"
    },
    {
      "inputs": [
        {
          "internalType": "string",
          "name": "_newHash",
          "type": "string"
        }
      ],
      "name": "anchorLedgerHash",
      "outputs": [],
      "stateMutability": "nonpayable",
      "type": "function"
    },
    {
      "inputs": [],
      "name": "getLatestLedgerHash",
      "outputs": [
        {
          "internalType": "string",
          "name": "",
          "type": "string"
        }
      ],
      "stateMutability": "view",
      "type": "function"
    },
    {
      "inputs": [],
      "name": "lastUpdatedTimestamp",
      "outputs": [
        {
          "internalType": "uint256",
          "name": "",
          "type": "uint256"
        }
      ],
      "stateMutability": "view",
      "type": "function"
    },
    {
      "inputs": [],
      "name": "latestLedgerHash",
      "outputs": [
        {
          "internalType": "string",
          "name": "",
          "type": "string"
        }
      ],
      "stateMutability": "view",
      "type": "function"
    },
    {
      "inputs": [],
      "name": "owner",
      "outputs": [
        {
          "internalType": "address",
          "name": "",
          "type": "address"
        }
      ],
      "stateMutability": "view",
      "type": "function"
    }
  ],
  "bytecode": "0x60806040523480156200001157600080fd5b50336000806101000a81548173ffffffffffffffffffffffffffffffffffffffff021916908373ffffffffffffffffffffffffffffffffffffffff1602179055506040518060400160405280600781526020017f47454e45534953000000000000000000000000000000000000000000000000008152506001908162000098919062000320565b504260028190555062000407565b600081519050919050565b7f4e487b7100000000000000000000000000000000000000000000000000000000600052604160045260246000fd5b7f4e487b7100000000000000000000000000000000000000000000000000000000600052602260045260246000fd5b600060028204905060018216806200012857607f821691505b6020821081036200013e576200013d620000e0565b5b50919050565b60008190508160005260206000209050919050565b60006020601f8301049050919050565b600082821b905092915050565b600060088302620001a87fffffffffffffffffffffffffffffffffffffffffffffffffffffffffffffffff8262000169565b620001b4868362000169565b95508019841693508086168417925050509392505050565b6000819050919050565b6000819050919050565b600062000201620001fb620001f584620001cc565b620001d6565b620001cc565b9050919050565b6000819050919050565b6200021d83620001e0565b620002356200022c8262000208565b84845462000176565b825550505050565b600090565b6200024c6200023d565b6200025981848462000212565b505050565b5b8181101562000281576200027560008262000242565b6001810190506200025f565b5050565b601f821115620002d0576200029a8162000144565b620002a58462000159565b81016020851015620002b5578190505b620002cd620002c48562000159565b8301826200025e565b50505b505050565b600082821c905092915050565b6000620002f560001984600802620002d5565b1980831691505092915050565b6000620003108383620002e2565b9150826002028217905092915050565b6200032b82620000a6565b67ffffffffffffffff811115620003475762000346620000b1565b5b6200035382546200010f565b6200036082828562000285565b600060209050601f83116001811462000398576000841562000383578287015190505b6200038f858262000302565b865550620003ff565b601f198416620003a88662000144565b60005b82811015620003d257848901518255600182019150602085019450602081019050620003ab565b86831015620003f25784890151620003ee601f891682620002e2565b8355505b6001600288020188555050505b505050505050565b6109c580620004176000396000f3fe608060405234801561001057600080fd5b50600436106100575760003560e01c80635d81d77f1461005c57806385caaabd1461007a57806386bf223a146100965780638da5cb5b146100b4578063fbaf894c146100d2575b600080fd5b6100646100f0565b60405161007191906103ab565b60405180910390f35b610094600480360381019061008f9190610516565b610182565b005b61009e610263565b6040516100ab91906103ab565b60405180910390f35b6100bc6102f1565b6040516100c991906105a0565b60405180910390f35b6100da610315565b6040516100e791906105d4565b60405180910390f35b6060600180546100ff9061061e565b80601f016020809104026020016040519081016040528092919081815260200182805461012b9061061e565b80156101785780601f1061014d57610100808354040283529160200191610178565b820191906000526020600020905b81548152906001019060200180831161015b57829003601f168201915b5050505050905090565b60008054906101000a900473ffffffffffffffffffffffffffffffffffffffff1673ffffffffffffffffffffffffffffffffffffffff163373ffffffffffffffffffffffffffffffffffffffff1614610210576040517f08c379a0000000000000000000000000000000000000000000000000000000008152600401610207906106c1565b60405180910390fd5b806001908161021f919061088d565b50426002819055507f26a59b7f300374fe15dbeec343c52b4c7c489ae7dce286d94210fd783392e687814260405161025892919061095f565b60405180910390a150565b600180546102709061061e565b80601f016020809104026020016040519081016040528092919081815260200182805461029c9061061e565b80156102e95780601f106102be576101008083540402835291602001916102e9565b820191906000526020600020905b8154815290600101906020018083116102cc57829003601f168201915b505050505081565b60008054906101000a900473ffffffffffffffffffffffffffffffffffffffff1681565b60025481565b600081519050919050565b600082825260208201905092915050565b60005b8381101561035557808201518184015260208101905061033a565b60008484015250505050565b6000601f19601f8301169050919050565b600061037d8261031b565b6103878185610326565b9350610397818560208601610337565b6103a081610361565b840191505092915050565b600060208201905081810360008301526103c58184610372565b905092915050565b6000604051905090565b600080fd5b600080fd5b600080fd5b600080fd5b7f4e487b7100000000000000000000000000000000000000000000000000000000600052604160045260246000fd5b61042382610361565b810181811067ffffffffffffffff82111715610442576104416103eb565b5b80604052505050565b60006104556103cd565b9050610461828261041a565b919050565b600067ffffffffffffffff821115610481576104806103eb565b5b61048a82610361565b9050602081019050919050565b82818337600083830152505050565b60006104b96104b484610466565b61044b565b9050828152602081018484840111156104d5576104d46103e6565b5b6104e0848285610497565b509392505050565b600082601f8301126104fd576104fc6103e1565b5b813561050d8482602086016104a6565b91505092915050565b60006020828403121561052c5761052b6103d7565b5b600082013567ffffffffffffffff81111561054a576105496103dc565b5b610556848285016104e8565b91505092915050565b600073ffffffffffffffffffffffffffffffffffffffff82169050919050565b600061058a8261055f565b9050919050565b61059a8161057f565b82525050565b60006020820190506105b56000830184610591565b92915050565b6000819050919050565b6105ce816105bb565b82525050565b60006020820190506105e960008301846105c5565b92915050565b7f4e487b7100000000000000000000000000000000000000000000000000000000600052602260045260246000fd5b6000600282049050600182168061063657607f821691505b602082108103610649576106486105ef565b5b50919050565b7f4f6e6c7920746865206f776e65722063616e20616e63686f72206e657720686160008201527f7368657300000000000000000000000000000000000000000000000000000000602082015250565b60006106ab602483610326565b91506106b68261064f565b604082019050919050565b600060208201905081810360008301526106da8161069e565b9050919050565b60008190508160005260206000209050919050565b60006020601f8301049050919050565b600082821b905092915050565b6000600883026107437fffffffffffffffffffffffffffffffffffffffffffffffffffffffffffffffff82610706565b61074d8683610706565b95508019841693508086168417925050509392505050565b6000819050919050565b600061078a610785610780846105bb565b610765565b6105bb565b9050919050565b6000819050919050565b6107a48361076f565b6107b86107b082610791565b848454610713565b825550505050565b600090565b6107cd6107c0565b6107d881848461079b565b505050565b5b818110156107fc576107f16000826107c5565b6001810190506107de565b5050565b601f82111561084157610812816106e1565b61081b846106f6565b8101602085101561082a578190505b61083e610836856106f6565b8301826107dd565b50505b505050565b600082821c905092915050565b600061086460001984600802610846565b1980831691505092915050565b600061087d8383610853565b9150826002028217905092915050565b6108968261031b565b67ffffffffffffffff8111156108af576108ae6103eb565b5b6108b9825461061e565b6108c4828285610800565b600060209050601f8311600181146108f757600084156108e5578287015190505b6108ef8582610871565b865550610957565b601f198416610905866106e1565b60005b8281101561092d57848901518255600182019150602085019450602081019050610908565b8683101561094a5784890151610946601f891682610853565b8355505b6001600288020188555050505b505050505050565b600060408201905081810360008301526109798185610372565b905061098860208301846105c5565b939250505056fea2646970667358221220880f70d84fff1bec2c87819c05029cd1c03e149af6c2b386f82794b623fb6c3864736f6c63430008140033",
  "linkReferences": {},
  "deployedLinkReferences": {}
}