{"contracts/LedgerAnchor.sol":{"LedgerAnchor":{"abi":[{"inputs":[],"stateMutability":"nonpayable","type":"constructor"},{"anonymous":false,"inputs":[{"indexed":false,"internalType":"string","name":"newHash","type":"string"},{"indexed":false,"internalType":"uint256","name":"timestamp","type":"uint256"}],"name":"HashAnchored","type":"event"},{"inputs":[{"internalType":"string","name":"_newHash","type":"string"}],"name":"anchorLedgerHash","outputs":[],"stateMutability":"nonpayable","type":"function"},{"inputs":[],"name":"getLatestLedgerHash","outputs":[{"internalType":"string","name":"","type":"string"}],"stateMutability":"view","type":"function"},{"inputs":[],"name":"lastUpdatedTimestamp","outputs":[{"internalType":"uint256","name":"","type":"uint256"}],"stateMutability":"view","type":"function"},{"inputs":[],"name":"latestLedgerHash","outputs":[{"internalType":"string","name":"","type":"string"}],"stateMutability":"view","type":"function"},{"inputs":[],"name":"owner","outputs":[{"internalType":"address","name":"","type":"address"}],"stateMutability":"view","type":"function"}],"evm":{"bytecode":{"linkReferences":{},"object":"60806040523480156200001157600080fd5b50336000806101000a81548173ffffffffffffffffffffffffffffffffffffffff021916908373ffffffffffffffffffffffffffffffffffffffff1602179055506040518060400160405280600781526020017f47454e45534953000000000000000000000000000000000000000000000000008152506001908162000098919062000320565b504260028190555062000407565b600081519050919050565b7f4e487b7100000000000000000000000000000000000000000000000000000000600052604160045260246000fd5b7f4e487b7100000000000000000000000000000000000000000000000000000000600052602260045260246000fd5b600060028204905060018216806200012857607f821691505b6020821081036200013e576200013d620000e0565b5b50919050565b60008190508160005260206000209050919050565b60006020601f8301049050919050565b600082821b905092915050565b600060088302620001a87fffffffffffffffffffffffffffffffffffffffffffffffffffffffffffffffff8262000169565b620001b4868362000169565b95508019841693508086168417925050509392505050565b6000819050919050565b6000819050919050565b600062000201620001fb620001f584620001cc565b620001d6565b620001cc565b9050919050565b6000819050919050565b6200021d83620001e0565b620002356200022c8262000208565b84845462000176565b825550505050565b600090565b6200024c6200023d565b6200025981848462000212565b505050565b5b8181101562000281576200027560008262000242565b6001810190506200025f565b5050565b601f821115620002d0576200029a8162000144565b620002a58462000159565b81016020851015620002b5578190505b620002cd620002c48562000159565b8301826200025e565b50505b505050565b600082821c905092915050565b6000620002f560001984600802620002d5565b1980831691505092915050565b6000620003108383620002e2565b9150826002028217905092915050565b6200032b82620000a6565b67ffffffffffffffff811115620003475762000346620000b1565b5b6200035382546200010f565b6200036082828562000285565b600060209050601f83116001811462000398576000841562000383578287015190505b6200038f858262000302565b865550620003ff565b601f198416620003a88662000144565b60005b82811015620003d257848901518255600182019150602085019450602081019050620003ab565b86831015620003f25784890151620003ee601f891682620002e2565b8355505b6001600288020188555050505b505050505050565b6109c580620004176000396000f3fe608060405234801561001057600080fd5b50600436106100575760003560e01c80635d81d77f1461005c57806385caaabd1461007a57806386bf223a146100965780638da5cb5b146100b4578063fbaf894c146100d2575b600080fd5b6100646100f0565b60405161007191906103ab565b60405180910390f35b610094600480360381019061008f9190610516565b610182565b005b61009e610263565b6040516100ab91906103ab565b60405180910390f35b6100bc6102f1565b6040516100c991906105a0565b60405180910390f35b6100da610315565b6040516100e791906105d4565b60405180910390f35b6060600180546100ff9061061e565b80601f016020809104026020016040519081016040528092919081815260200182805461012b9061061e565b80156101785780601f1061014d57610100808354040283529160200191610178565b820191906000526020600020905b81548152906001019060200180831161015b57829003601f168201915b5050505050905090565b60008054906101000a900473ffffffffffffffffffffffffffffffffffffffff1673ffffffffffffffffffffffffffffffffffffffff163373ffffffffffffffffffffffffffffffffffffffff1614610210576040517f08c379a0000000000000000000000000000000000000000000000000000000008152600401610207906106c1565b60405180910390fd5b806001908161021f919061088d565b50426002819055507f26a59b7f300374fe15dbeec343c52b4c7c489ae7dce286d94210fd783392e687814260405161025892919061095f565b60405180910390a150565b600180546102709061061e565b80601f016020809104026020016040519081016040528092919081815260200182805461029c9061061e565b80156102e95780601f106102be576101008083540402835291602001916102e9565b820191906000526020600020905b8154815290600101906020018083116102cc57829003601f168201915b505050505081565b60008054906101000a900473ffffffffffffffffffffffffffffffffffffffff1681565b60025481565b600081519050919050565b600082825260208201905092915050565b60005b8381101561035557808201518184015260208101905061033a565b60008484015250505050565b6000601f19601f8301169050919050565b600061037d8261031b565b6103878185610326565b9350610397818560208601610337565b6103a081610361565b840191505092915050565b600060208201905081810360008301526103c58184610372565b905092915050565b6000604051905090565b600080fd5b600080fd5b600080fd5b600080fd5b7f4e487b7100000000000000000000000000000000000000000000000000000000600052604160045260246000fd5b61042382610361565b810181811067ffffffffffffffff82111715610442576104416103eb565b5b80604052505050565b60006104556103cd565b9050610461828261041a565b919050565b600067ffffffffffffffff821115610481576104806103eb565b5b61048a82610361565b9050602081019050919050565b82818337600083830152505050565b60006104b96104b484610466565b61044b565b9050828152602081018484840111156104d5576104d46103e6565b5b6104e0848285610497565b509392505050565b600082601f8301126104fd576104fc6103e1565b5b813561050d8482602086016104a6565b91505092915050565b60006020828403121561052c5761052b6103d7565b5b600082013567ffffffffffffffff81111561054a576105496103dc565b5b610556848285016104e8565b91505092915050565b600073ffffffffffffffffffffffffffffffffffffffff82169050919050565b600061058a8261055f565b9050919050565b61059a8161057f565b82525050565b60006020820190506105b56000830184610591565b92915050565b6000819050919050565b6105ce816105bb565b82525050565b60006020820190506105e960008301846105c5565b92915050565b7f4e487b7100000000000000000000000000000000000000000000000000000000600052602260045260246000fd5b6000600282049050600182168061063657607f821691505b602082108103610649576106486105ef565b5b50919050565b7f4f6e6c7920746865206f776e65722063616e20616e63686f72206e657720686160008201527f7368657300000000000000000000000000000000000000000000000000000000602082015250565b60006106ab602483610326565b91506106b68261064f565b604082019050919050565b600060208201905081810360008301526106da8161069e565b9050919050565b60008190508160005260206000209050919050565b60006020601f8301049050919050565b600082821b905092915050565b6000600883026107437fffffffffffffffffffffffffffffffffffffffffffffffffffffffffffffffff82610706565b61074d8683610706565b95508019841693508086168417925050509392505050565b6000819050919050565b600061078a610785610780846105bb565b610765565b6105bb565b9050919050565b6000819050919050565b6107a48361076f565b6107b86107b082610791565b848454610713565b825550505050565b600090565b6107cd6107c0565b6107d881848461079b565b505050565b5b818110156107fc576107f16000826107c5565b6001810190506107de565b5050565b601f82111561084157610812816106e1565b61081b846106f6565b8101602085101561082a578190505b61083e610836856106f6565b8301826107dd565b50505b505050565b600082821c905092915050565b600061086460001984600802610846565b1980831691505092915050565b600061087d8383610853565b9150826002028217905092915050565b6108968261031b565b67ffffffffffffffff8111156108af576108ae6103eb565b5b6108b9825461061e565b6108c4828285610800565b600060209050601f8311600181146108f757600084156108e5578287015190505b6108ef8582610871565b865550610957565b601f198416610905866106e1565b60005b8281101561092d57848901518255600182019150602085019450602081019050610908565b8683101561094a5784890151610946601f891682610853565b8355505b6001600288020188555050505b505050505050565b600060408201905081810360008301526109798185610372565b905061098860208301846105c5565b939250505056fea2646970667358221220880f70d84fff1bec2c87819c05029cd1c03e149af6c2b386f82794b623fb6c3864736f6c63430008140033","opcodes":"PUSH1 0x80 PUSH1 0x40 MSTORE CALLVALUE DUP1 ISZERO PUSH3 0x11 JUMPI PUSH1 0x0 DUP1 REVERT JUMPDEST POP CALLER PUSH1 0x0 DUP1 PUSH2 0x100 EXP DUP2 SLOAD DUP2 PUSH20 0xFFFFFFFFFFFFFFFFFFFFFFFFFFFFFFFFFFFFFFFF MUL NOT AND SWAP1 DUP4 PUSH20 0xFFFFFFFFFFFFFFFFFFFFFFFFFFFFFFFFFFFFFFFF AND MUL OR SWAP1 SSTORE POP PUSH1 0x40 MLOAD DUP1 PUSH1 0x40 ADD PUSH1 0x40 MSTORE DUP1 PUSH1 0x7 DUP2 MSTORE PUSH1 0x20 ADD PUSH32 0x47454E4553495300000000000000000000000000000000000000000000000000 DUP2 MSTORE POP PUSH1 0x1 SWAP1 DUP2 PUSH3 0x98 SWAP2 SWAP1 PUSH3 0x320 JUMP JUMPDEST POP TIMESTAMP PUSH1 0x2 DUP2 SWAP1 SSTORE POP PUSH3 0x407 JUMP JUMPDEST PUSH1 0x0 DUP2 MLOAD SWAP1 POP SWAP2 SWAP1 POP JUMP JUMPDEST PUSH32 0x4E487B7100000000000000000000000000000000000000000000000000000000 PUSH1 0x0 MSTORE PUSH1 0x41 PUSH1 0x4 MSTORE PUSH1 0x24 PUSH1 0x0 REVERT JUMPDEST PUSH32 0x4E487B7100000000000000000000000000000000000000000000000000000000 PUSH1 0x0 MSTORE PUSH1 0x22 PUSH1 0x4 MSTORE PUSH1 0x24 PUSH1 0x0 REVERT JUMPDEST PUSH1 0x0 PUSH1 0x2 DUP3 DIV SWAP1 POP PUSH1 0x1 DUP3 AND DUP1 PUSH3 0x128 JUMPI PUSH1 0x7F DUP3 AND SWAP2 POP JUMPDEST PUSH1 0x20 DUP3 LT DUP2 SUB PUSH3 0x13E JUMPI PUSH3 0x13D PUSH3 0xE0 JUMP JUMPDEST JUMPDEST POP SWAP2 SWAP1 POP JUMP JUMPDEST PUSH1 0x0 DUP2 SWAP1 POP DUP2 PUSH1 0x0 MSTORE PUSH1 0x20 PUSH1 0x0 KECCAK256 SWAP1 POP SWAP2 SWAP1 POP JUMP JUMPDEST PUSH1 0x0 PUSH1 0x20 PUSH1 0x1F DUP4 ADD DIV SWAP1 POP SWAP2 SWAP1 POP JUMP JUMPDEST PUSH1 0x0 DUP3 DUP3 SHL SWAP1 POP SWAP3 SWAP2 POP POP JUMP JUMPDEST PUSH1 0x0 PUSH1 0x8 DUP4 MUL PUSH3 0x1A8 PUSH32 0xFFFFFFFFFFFFFFFFFFFFFFFFFFFFFFFFFFFFFFFFFFFFFFFFFFFFFFFFFFFFFFFF DUP3 PUSH3 0x169 JUMP JUMPDEST PUSH3 0x1B4 DUP7 DUP4 PUSH3 0x169 JUMP JUMPDEST SWAP6 POP DUP1 NOT DUP5 AND SWAP4 POP DUP1 DUP7 AND DUP5 OR SWAP3 POP POP POP SWAP4 SWAP3 POP POP POP JUMP JUMPDEST PUSH1 0x0 DUP2 SWAP1 POP SWAP2 SWAP1 POP JUMP JUMPDEST PUSH1 0x0 DUP2 SWAP1 POP SWAP2 SWAP1 POP JUMP JUMPDEST PUSH1 0x0 PUSH3 0x201 PUSH3 0x1FB PUSH3 0x1F5 DUP5 PUSH3 0x1CC JUMP JUMPDEST PUSH3 0x1D6 JUMP JUMPDEST PUSH3 0x1CC JUMP JUMPDEST SWAP1 POP SWAP2 SWAP1 POP JUMP JUMPDEST PUSH1 0x0 DUP2 SWAP1 POP SWAP2 SWAP1 POP JUMP JUMPDEST PUSH3 0x21D DUP4 PUSH3 0x1E0 JUMP JUMPDEST PUSH3 0x235 PUSH3 0x22C DUP3 PUSH3 0x208 JUMP JUMPDEST DUP5 DUP5 SLOAD PUSH3 0x176 JUMP JUMPDEST DUP3 SSTORE POP POP POP POP JUMP JUMPDEST PUSH1 0x0 SWAP1 JUMP JUMPDEST PUSH3 0x24C PUSH3 0x23D JUMP JUMPDEST PUSH3 0x259 DUP2 DUP5 DUP5 PUSH3 0x212 JUMP JUMPDEST POP POP POP JUMP JUMPDEST JUMPDEST DUP2 DUP2 LT ISZERO PUSH3 0x281 JUMPI PUSH3 0x275 PUSH1 0x0 DUP3 PUSH3 0x242 JUMP JUMPDEST PUSH1 0x1 DUP2 ADD SWAP1 POP PUSH3 0x25F JUMP JUMPDEST POP POP JUMP JUMPDEST PUSH1 0x1F DUP3 GT ISZERO PUSH3 0x2D0 JUMPI PUSH3 0x29A DUP2 PUSH3 0x144 JUMP JUMPDEST PUSH3 0x2A5 DUP5 PUSH3 0x159 JUMP JUMPDEST DUP2 ADD PUSH1 0x20 DUP6 LT ISZERO PUSH3 0x2B5 JUMPI DUP2 SWAP1 POP JUMPDEST PUSH3 0x2CD PUSH3 0x2C4 DUP6 PUSH3 0x159 JUMP JUMPDEST DUP4 ADD DUP3 PUSH3 0x25E JUMP JUMPDEST POP POP JUMPDEST POP POP POP JUMP JUMPDEST PUSH1 0x0 DUP3 DUP3 SHR SWAP1 POP SWAP3 SWAP2 POP POP JUMP JUMPDEST PUSH1 0x0 PUSH3 0x2F5 PUSH1 0x0 NOT DUP5 PUSH1 0x8 MUL PUSH3 0x2D5 JUMP JUMPDEST NOT DUP1 DUP4 AND SWAP2 POP POP SWAP3 SWAP2 POP POP JUMP JUMPDEST PUSH1 0x0 PUSH3 0x310 DUP4 DUP4 PUSH3 0x2E2 JUMP JUMPDEST SWAP2 POP DUP3 PUSH1 0x2 MUL DUP3 OR SWAP1 POP SWAP3 SWAP2 POP POP JUMP JUMPDEST PUSH3 0x32B DUP3 PUSH3 0xA6 JUMP JUMPDEST PUSH8 0xFFFFFFFFFFFFFFFF DUP2 GT ISZERO PUSH3 0x347 JUMPI PUSH3 0x346 PUSH3 0xB1 JUMP JUMPDEST JUMPDEST PUSH3 0x353 DUP3 SLOAD PUSH3 0x10F JUMP JUMPDEST PUSH3 0x360 DUP3 DUP3 DUP6 PUSH3 0x285 JUMP JUMPDEST PUSH1 0x0 PUSH1 0x20 SWAP1 POP PUSH1 0x1F DUP4 GT PUSH1 0x1 DUP2 EQ PUSH3 0x398 JUMPI PUSH1 0x0 DUP5 ISZERO PUSH3 0x383 JUMPI DUP3 DUP8 ADD MLOAD SWAP1 POP JUMPDEST PUSH3 0x38F DUP6 DUP3 PUSH3 0x302 JUMP JUMPDEST DUP7 SSTORE POP PUSH3 0x3FF JUMP JUMPDEST PUSH1 0x1F NOT DUP5 AND PUSH3 0x3A8 DUP7 PUSH3 0x144 JUMP JUMPDEST PUSH1 0x0 JUMPDEST DUP3 DUP2 LT ISZERO PUSH3 0x3D2 JUMPI DUP5 DUP10 ADD MLOAD DUP3 SSTORE PUSH1 0x1 DUP3 ADD SWAP2 POP PUSH1 0x20 DUP6 ADD SWAP5 POP PUSH1 0x20 DUP2 ADD SWAP1 POP PUSH3 0x3AB JUMP JUMPDEST DUP7 DUP4 LT ISZERO PUSH3 0x3F2 JUMPI DUP5 DUP10 ADD MLOAD PUSH3 0x3EE PUSH1 0x1F DUP10 AND DUP3 PUSH3 0x2E2 JUMP JUMPDEST DUP4 SSTORE POP JUMPDEST PUSH1 0x1 PUSH1 0x2 DUP9 MUL ADD DUP9 SSTORE POP POP POP JUMPDEST POP POP POP POP POP POP JUMP JUMPDEST PUSH2 0x9C5 DUP1 PUSH3 0x417 PUSH1 0x0 CODECOPY PUSH1 0x0 RETURN INVALID PUSH1 0x80 PUSH1 0x40 MSTORE CALLVALUE DUP1 ISZERO PUSH2 0x10 JUMPI PUSH1 0x0 DUP1 REVERT JUMPDEST POP PUSH1 0x4 CALLDATASIZE LT PUSH2 0x57 JUMPI PUSH1 0x0 CALLDATALOAD PUSH1 0xE0 SHR DUP1 PUSH4 0x5D81D77F EQ PUSH2 0x5C JUMPI DUP1 PUSH4 0x85CAAABD EQ PUSH2 0x7A JUMPI DUP1 PUSH4 0x86BF223A EQ PUSH2 0x96 JUMPI DUP1 PUSH4 0x8DA5CB5B EQ PUSH2 0xB4 JUMPI DUP1 PUSH4 0xFBAF894C EQ PUSH2 0xD2 JUMPI JUMPDEST PUSH1 0x0 DUP1 REVERT JUMPDEST PUSH2 0x64 PUSH2 0xF0 JUMP JUMPDEST PUSH1 0x40 MLOAD PUSH2 0x71 SWAP2 SWAP1 PUSH2 0x3AB JUMP JUMPDEST PUSH1 0x40 MLOAD DUP1 SWAP2 SUB SWAP1 RETURN JUMPDEST PUSH2 0x94 PUSH1 0x4 DUP1 CALLDATASIZE SUB DUP2 ADD SWAP1 PUSH2 0x8F SWAP2 SWAP1 PUSH2 0x516 JUMP JUMPDEST PUSH2 0x182 JUMP JUMPDEST STOP JUMPDEST PUSH2 0x9E PUSH2 0x263 JUMP JUMPDEST PUSH1 0x40 MLOAD PUSH2 0xAB SWAP2 SWAP1 PUSH2 0x3AB JUMP JUMPDEST PUSH1 0x40 MLOAD DUP1 SWAP2 SUB SWAP1 RETURN JUMPDEST PUSH2 0xBC PUSH2 0x2F1 JUMP JUMPDEST PUSH1 0x40 MLOAD PUSH2 0xC9 SWAP2 SWAP1 PUSH2 0x5A0 JUMP JUMPDEST PUSH1 0x40 MLOAD DUP1 SWAP2 SUB SWAP1 RETURN JUMPDEST PUSH2 0xDA PUSH2 0x315 JUMP JUMPDEST PUSH1 0x40 MLOAD PUSH2 0xE7 SWAP2 SWAP1 PUSH2 0x5D4 JUMP JUMPDEST PUSH1 0x40 MLOAD DUP1 SWAP2 SUB SWAP1 RETURN JUMPDEST PUSH1 0x60 PUSH1 0x1 DUP1 SLOAD PUSH2 0xFF SWAP1 PUSH2 0x61E JUMP JUMPDEST DUP1 PUSH1 0x1F ADD PUSH1 0x20 DUP1 SWAP2 DIV MUL PUSH1 0x20 ADD PUSH1 0x40 MLOAD SWAP1 DUP2 ADD PUSH1 0x40 MSTORE DUP1 SWAP3 SWAP2 SWAP1 DUP2 DUP2 MSTORE PUSH1 0x20 ADD DUP3 DUP1 SLOAD PUSH2 0x12B SWAP1 PUSH2 0x61E JUMP JUMPDEST DUP1 ISZERO PUSH2 0x178 JUMPI DUP1 PUSH1 0x1F LT PUSH2 0x14D JUMPI PUSH2 0x100 DUP1 DUP4 SLOAD DIV MUL DUP4 MSTORE SWAP2 PUSH1 0x20 ADD SWAP2 PUSH2 0x178 JUMP JUMPDEST DUP3 ADD SWAP2 SWAP1 PUSH1 0x0 MSTORE PUSH1 0x20 PUSH1 0x0 KECCAK256 SWAP1 JUMPDEST DUP2 SLOAD DUP2 MSTORE SWAP1 PUSH1 0x1 ADD SWAP1 PUSH1 0x20 ADD DUP1 DUP4 GT PUSH2 0x15B JUMPI DUP3 SWAP1 SUB PUSH1 0x1F AND DUP3 ADD SWAP2 JUMPDEST POP POP POP POP POP SWAP1 POP SWAP1 JUMP JUMPDEST PUSH1 0x0 DUP1 SLOAD SWAP1 PUSH2 0x100 EXP SWAP1 DIV PUSH20 0xFFFFFFFFFFFFFFFFFFFFFFFFFFFFFFFFFFFFFFFF AND PUSH20 0xFFFFFFFFFFFFFFFFFFFFFFFFFFFFFFFFFFFFFFFF AND CALLER PUSH20 0xFFFFFFFFFFFFFFFFFFFFFFFFFFFFFFFFFFFFFFFF AND EQ PUSH2 0x210 JUMPI PUSH1 0x40 MLOAD PUSH32 0x8C379A000000000000000000000000000000000000000000000000000000000 DUP2 MSTORE PUSH1 0x4 ADD PUSH2 0x207 SWAP1 PUSH2 0x6C1 JUMP JUMPDEST PUSH1 0x40 MLOAD DUP1 SWAP2 SUB SWAP1 REVERT JUMPDEST DUP1 PUSH1 0x1 SWAP1 DUP2 PUSH2 0x21F SWAP2 SWAP1 PUSH2 0x88D JUMP JUMPDEST POP TIMESTAMP PUSH1 0x2 DUP2 SWAP1 SSTORE POP PUSH32 0x26A59B7F300374FE15DBEEC343C52B4C7C489AE7DCE286D94210FD783392E687 DUP2 TIMESTAMP PUSH1 0x40 MLOAD PUSH2 0x258 SWAP3 SWAP2 SWAP1 PUSH2 0x95F JUMP JUMPDEST PUSH1 0x40 MLOAD DUP1 SWAP2 SUB SWAP1 LOG1 POP JUMP JUMPDEST PUSH1 0x1 DUP1 SLOAD PUSH2 0x270 SWAP1 PUSH2 0x61E JUMP JUMPDEST DUP1 PUSH1 0x1F ADD PUSH1 0x20 DUP1 SWAP2 DIV MUL PUSH1 0x20 ADD PUSH1 0x40 MLOAD SWAP1 DUP2 ADD PUSH1 0x40 MSTORE DUP1 SWAP3 SWAP2 SWAP1 DUP2 DUP2 MSTORE PUSH1 0x20 ADD DUP3 DUP1 SLOAD PUSH2 0x29C SWAP1 PUSH2 0x61E JUMP JUMPDEST DUP1 ISZERO PUSH2 0x2E9 JUMPI DUP1 PUSH1 0x1F LT PUSH2 0x2BE JUMPI PUSH2 0x100 DUP1 DUP4 SLOAD DIV MUL DUP4 MSTORE SWAP2 PUSH1 0x20 ADD SWAP2 PUSH2 0x2E9 JUMP JUMPDEST DUP3 ADD SWAP2 SWAP1 PUSH1 0x0 MSTORE PUSH1 0x20 PUSH1 0x0 KECCAK256 SWAP1 JUMPDEST DUP2 SLOAD DUP2 MSTORE SWAP1 PUSH1 0x1 ADD SWAP1 PUSH1 0x20 ADD DUP1 DUP4 GT PUSH2 0x2CC JUMPI DUP3 SWAP1 SUB PUSH1 0x1F AND DUP3 ADD SWAP2 JUMPDEST POP POP POP POP POP DUP2 JUMP JUMPDEST PUSH1 0x0 DUP1 SLOAD SWAP1 PUSH2 0x100 EXP SWAP1 DIV PUSH20 0xFFFFFFFFFFFFFFFFFFFFFFFFFFFFFFFFFFFFFFFF AND DUP2 JUMP JUMPDEST PUSH1 0x2 SLOAD DUP2 JUMP JUMPDEST PUSH1 0x0 DUP2 MLOAD SWAP1 POP SWAP2 SWAP1 POP JUMP JUMPDEST PUSH1 0x0 DUP3 DUP3 MSTORE PUSH1 0x20 DUP3 ADD SWAP1 POP SWAP3 SWAP2 POP POP JUMP JUMPDEST PUSH1 0x0 JUMPDEST DUP4 DUP2 LT ISZERO PUSH2 0x355 JUMPI DUP1 DUP3 ADD MLOAD DUP2 DUP5 ADD MSTORE PUSH1 0x20 DUP2 ADD SWAP1 POP PUSH2 0x33A JUMP JUMPDEST PUSH1 0x0 DUP5 DUP5 ADD MSTORE POP POP POP POP JUMP JUMPDEST PUSH1 0x0 PUSH1 0x1F NOT PUSH1 0x1F DUP4 ADD AND SWAP1 POP SWAP2 SWAP1 POP JUMP JUMPDEST PUSH1 0x0 PUSH2 0x37D DUP3 PUSH2 0x31B JUMP JUMPDEST PUSH2 0x387 DUP2 DUP6 PUSH2 0x326 JUMP JUMPDEST SWAP4 POP PUSH2 0x397 DUP2 DUP6 PUSH1 0x20 DUP7 ADD PUSH2 0x337 JUMP JUMPDEST PUSH2 0x3A0 DUP2 PUSH2 0x361 JUMP JUMPDEST DUP5 ADD SWAP2 POP POP SWAP3 SWAP2 POP POP JUMP JUMPDEST PUSH1 0x0 PUSH1 0x20 DUP3 ADD SWAP1 POP DUP2 DUP2 SUB PUSH1 0x0 DUP4 ADD MSTORE PUSH2 0x3C5 DUP2 DUP5 PUSH2 0x372 JUMP JUMPDEST SWAP1 POP SWAP3 SWAP2 POP POP JUMP JUMPDEST PUSH1 0x0 PUSH1 0x40 MLOAD SWAP1 POP SWAP1 JUMP JUMPDEST PUSH1 0x0 DUP1 REVERT JUMPDEST PUSH1 0x0 DUP1 REVERT JUMPDEST PUSH1 0x0 DUP1 REVERT JUMPDEST PUSH1 0x0 DUP1 REVERT JUMPDEST PUSH32 0x4E487B7100000000000000000000000000000000000000000000000000000000 PUSH1 0x0 MSTORE PUSH1 0x41 PUSH1 0x4 MSTORE PUSH1 0x24 PUSH1 0x0 REVERT JUMPDEST PUSH2 0x423 DUP3 PUSH2 0x361 JUMP JUMPDEST DUP2 ADD DUP2 DUP2 LT PUSH8 0xFFFFFFFFFFFFFFFF DUP3 GT OR ISZERO PUSH2 0x442 JUMPI PUSH2 0x441 PUSH2 0x3EB JUMP JUMPDEST JUMPDEST DUP1 PUSH1 0x40 MSTORE POP POP POP JUMP JUMPDEST PUSH1 0x0 PUSH2 0x455 PUSH2 0x3CD JUMP JUMPDEST SWAP1 POP PUSH2 0x461 DUP3 DUP3 PUSH2 0x41A JUMP JUMPDEST SWAP2 SWAP1 POP JUMP JUMPDEST PUSH1 0x0 PUSH8 0xFFFFFFFFFFFFFFFF DUP3 GT ISZERO PUSH2 0x481 JUMPI PUSH2 0x480 PUSH2 0x3EB JUMP JUMPDEST JUMPDEST PUSH2 0x48A DUP3 PUSH2 0x361 JUMP JUMPDEST SWAP1 POP PUSH1 0x20 DUP2 ADD SWAP1 POP SWAP2 SWAP1 POP JUMP JUMPDEST DUP3 DUP2 DUP4 CALLDATACOPY PUSH1 0x0 DUP4 DUP4 ADD MSTORE POP POP POP JUMP JUMPDEST PUSH1 0x0 PUSH2 0x4B9 PUSH2 0x4B4 DUP5 PUSH2 0x466 JUMP JUMPDEST PUSH2 0x44B JUMP JUMPDEST SWAP1 POP DUP3 DUP2 MSTORE PUSH1 0x20 DUP2 ADD DUP5 DUP5 DUP5 ADD GT ISZERO PUSH2 0x4D5 JUMPI PUSH2 0x4D4 PUSH2 0x3E6 JUMP JUMPDEST JUMPDEST PUSH2 0x4E0 DUP5 DUP3 DUP6 PUSH2 0x497 JUMP JUMPDEST POP SWAP4 SWAP3 POP POP POP JUMP JUMPDEST PUSH1 0x0 DUP3 PUSH1 0x1F DUP4 ADD SLT PUSH2 0x4FD JUMPI PUSH2 0x4FC PUSH2 0x3E1 JUMP JUMPDEST JUMPDEST DUP2 CALLDATALOAD PUSH2 0x50D DUP5 DUP3 PUSH1 0x20 DUP7 ADD PUSH2 0x4A6 JUMP JUMPDEST SWAP2 POP POP SWAP3 SWAP2 POP POP JUMP JUMPDEST PUSH1 0x0 PUSH1 0x20 DUP3 DUP5 SUB SLT ISZERO PUSH2 0x52C JUMPI PUSH2 0x52B PUSH2 0x3D7 JUMP JUMPDEST JUMPDEST PUSH1 0x0 DUP3 ADD CALLDATALOAD PUSH8 0xFFFFFFFFFFFFFFFF DUP2 GT ISZERO PUSH2 0x54A JUMPI PUSH2 0x549 PUSH2 0x3DC JUMP JUMPDEST JUMPDEST PUSH2 0x556 DUP5 DUP3 DUP6 ADD PUSH2 0x4E8 JUMP JUMPDEST SWAP2 POP POP SWAP3 SWAP2 POP POP JUMP JUMPDEST PUSH1 0x0 PUSH20 0xFFFFFFFFFFFFFFFFFFFFFFFFFFFFFFFFFFFFFFFF DUP3 AND SWAP1 POP SWAP2 SWAP1 POP JUMP JUMPDEST PUSH1 0x0 PUSH2 0x58A DUP3 PUSH2 0x55F JUMP JUMPDEST SWAP1 POP SWAP2 SWAP1 POP JUMP JUMPDEST PUSH2 0x59A DUP2 PUSH2 0x57F JUMP JUMPDEST DUP3 MSTORE POP POP JUMP JUMPDEST PUSH1 0x0 PUSH1 0x20 DUP3 ADD SWAP1 POP PUSH2 0x5B5 PUSH1 0x0 DUP4 ADD DUP5 PUSH2 0x591 JUMP JUMPDEST SWAP3 SWAP2 POP POP JUMP JUMPDEST PUSH1 0x0 DUP2 SWAP1 POP SWAP2 SWAP1 POP JUMP JUMPDEST PUSH2 0x5CE DUP2 PUSH2 0x5BB JUMP JUMPDEST DUP3 MSTORE POP POP JUMP JUMPDEST PUSH1 0x0 PUSH1 0x20 DUP3 ADD SWAP1 POP PUSH2 0x5E9 PUSH1 0x0 DUP4 ADD DUP5 PUSH2 0x5C5 JUMP JUMPDEST SWAP3 SWAP2 POP POP JUMP JUMPDEST PUSH32 0x4E487B7100000000000000000000000000000000000000000000000000000000 PUSH1 0x0 MSTORE PUSH1 0x22 PUSH1 0x4 MSTORE PUSH1 0x24 PUSH1 0x0 REVERT JUMPDEST PUSH1 0x0 PUSH1 0x2 DUP3 DIV SWAP1 POP PUSH1 0x1 DUP3 AND DUP1 PUSH2 0x636 JUMPI PUSH1 0x7F DUP3 AND SWAP2 POP JUMPDEST PUSH1 0x20 DUP3 LT DUP2 SUB PUSH2 0x649 JUMPI PUSH2 0x648 PUSH2 0x5EF JUMP JUMPDEST JUMPDEST POP SWAP2 SWAP1 POP JUMP JUMPDEST PUSH32 0x4F6E6C7920746865206F776E65722063616E20616E63686F72206E6577206861 PUSH1 0x0 DUP3 ADD MSTORE PUSH32 0x7368657300000000000000000000000000000000000000000000000000000000 PUSH1 0x20 DUP3 ADD MSTORE POP JUMP JUMPDEST PUSH1 0x0 PUSH2 0x6AB PUSH1 0x24 DUP4 PUSH2 0x326 JUMP JUMPDEST SWAP2 POP PUSH2 0x6B6 DUP3 PUSH2 0x64F JUMP JUMPDEST PUSH1 0x40 DUP3 ADD SWAP1 POP SWAP2 SWAP1 POP JUMP JUMPDEST PUSH1 0x0 PUSH1 0x20 DUP3 ADD SWAP1 POP DUP2 DUP2 SUB PUSH1 0x0 DUP4 ADD MSTORE PUSH2 0x6DA DUP2 PUSH2 0x69E JUMP JUMPDEST SWAP1 POP SWAP2 SWAP1 POP JUMP JUMPDEST PUSH1 0x0 DUP2 SWAP1 POP DUP2 PUSH1 0x0 MSTORE PUSH1 0x20 PUSH1 0x0 KECCAK256 SWAP1 POP SWAP2 SWAP1 POP JUMP JUMPDEST PUSH1 0x0 PUSH1 0x20 PUSH1 0x1F DUP4 ADD DIV SWAP1 POP SWAP2 SWAP1 POP JUMP JUMPDEST PUSH1 0x0 DUP3 DUP3 SHL SWAP1 POP SWAP3 SWAP2 POP POP JUMP JUMPDEST PUSH1 0x0 PUSH1 0x8 DUP4 MUL PUSH2 0x743 PUSH32 0xFFFFFFFFFFFFFFFFFFFFFFFFFFFFFFFFFFFFFFFFFFFFFFFFFFFFFFFFFFFFFFFF DUP3 PUSH2 0x706 JUMP JUMPDEST PUSH2 0x74D DUP7 DUP4 PUSH2 0x706 JUMP JUMPDEST SWAP6 POP DUP1 NOT DUP5 AND SWAP4 POP DUP1 DUP7 AND DUP5 OR SWAP3 POP POP POP SWAP4 SWAP3 POP POP POP JUMP JUMPDEST PUSH1 0x0 DUP2 SWAP1 POP SWAP2 SWAP1 POP JUMP JUMPDEST PUSH1 0x0 PUSH2 0x78A PUSH2 0x785 PUSH2 0x780 DUP5 PUSH2 0x5BB JUMP JUMPDEST PUSH2 0x765 JUMP JUMPDEST PUSH2 0x5BB JUMP JUMPDEST SWAP1 POP SWAP2 SWAP1 POP JUMP JUMPDEST PUSH1 0x0 DUP2 SWAP1 POP SWAP2 SWAP1 POP JUMP JUMPDEST PUSH2 0x7A4 DUP4 PUSH2 0x76F JUMP JUMPDEST PUSH2 0x7B8 PUSH2 0x7B0 DUP3 PUSH2 0x791 JUMP JUMPDEST DUP5 DUP5 SLOAD PUSH2 0x713 JUMP JUMPDEST DUP3 SSTORE POP POP POP POP JUMP JUMPDEST PUSH1 0x0 SWAP1 JUMP JUMPDEST PUSH2 0x7CD PUSH2 0x7C0 JUMP JUMPDEST PUSH2 0x7D8 DUP2 DUP5 DUP5 PUSH2 0x79B JUMP JUMPDEST POP POP POP JUMP JUMPDEST JUMPDEST DUP2 DUP2 LT ISZERO PUSH2 0x7FC JUMPI PUSH2 0x7F1 PUSH1 0x0 DUP3 PUSH2 0x7C5 JUMP JUMPDEST PUSH1 0x1 DUP2 ADD SWAP1 POP PUSH2 0x7DE JUMP JUMPDEST POP POP JUMP JUMPDEST PUSH1 0x1F DUP3 GT ISZERO PUSH2 0x841 JUMPI PUSH2 0x812 DUP2 PUSH2 0x6E1 JUMP JUMPDEST PUSH2 0x81B DUP5 PUSH2 0x6F6 JUMP JUMPDEST DUP2 ADD PUSH1 0x20 DUP6 LT ISZERO PUSH2 0x82A JUMPI DUP2 SWAP1 POP JUMPDEST PUSH2 0x83E PUSH2 0x836 DUP6 PUSH2 0x6F6 JUMP JUMPDEST DUP4 ADD DUP3 PUSH2 0x7DD JUMP JUMPDEST POP POP JUMPDEST POP POP POP JUMP JUMPDEST PUSH1 0x0 DUP3 DUP3 SHR SWAP1 POP SWAP3 SWAP2 POP POP JUMP JUMPDEST PUSH1 0x0 PUSH2 0x864 PUSH1 0x0 NOT DUP5 PUSH1 0x8 MUL PUSH2 0x846 JUMP JUMPDEST NOT DUP1 DUP4 AND SWAP2 POP POP SWAP3 SWAP2 POP POP JUMP JUMPDEST PUSH1 0x0 PUSH2 0x87D DUP4 DUP4 PUSH2 0x853 JUMP JUMPDEST SWAP2 POP DUP3 PUSH1 0x2 MUL DUP3 OR SWAP1 POP SWAP3 SWAP2 POP POP JUMP JUMPDEST PUSH2 0x896 DUP3 PUSH2 0x31B JUMP JUMPDEST PUSH8 0xFFFFFFFFFFFFFFFF DUP2 GT ISZERO PUSH2 0x8AF JUMPI PUSH2 0x8AE PUSH2 0x3EB JUMP JUMPDEST JUMPDEST PUSH2 0x8B9 DUP3 SLOAD PUSH2 0x61E JUMP JUMPDEST PUSH2 0x8C4 DUP3 DUP3 DUP6 PUSH2 0x800 JUMP JUMPDEST PUSH1 0x0 PUSH1 0x20 SWAP1 POP PUSH1 0x1F DUP4 GT PUSH1 0x1 DUP2 EQ PUSH2 0x8F7 JUMPI PUSH1 0x0 DUP5 ISZERO PUSH2 0x8E5 JUMPI DUP3 DUP8 ADD MLOAD SWAP1 POP JUMPDEST PUSH2 0x8EF DUP6 DUP3 PUSH2 0x871 JUMP JUMPDEST DUP7 SSTORE POP PUSH2 0x957 JUMP JUMPDEST PUSH1 0x1F NOT DUP5 AND PUSH2 0x905 DUP7 PUSH2 0x6E1 JUMP JUMPDEST PUSH1 0x0 JUMPDEST DUP3 DUP2 LT ISZERO PUSH2 0x92D JUMPI DUP5 DUP10 ADD MLOAD DUP3 SSTORE PUSH1 0x1 DUP3 ADD SWAP2 POP PUSH1 0x20 DUP6 ADD SWAP5 POP PUSH1 0x20 DUP2 ADD SWAP1 POP PUSH2 0x908 JUMP JUMPDEST DUP7 DUP4 LT ISZERO PUSH2 0x94A JUMPI DUP5 DUP10 ADD MLOAD PUSH2 0x946 PUSH1 0x1F DUP10 AND DUP3 PUSH2 0x853 JUMP JUMPDEST DUP4 SSTORE POP JUMPDEST PUSH1 0x1 PUSH1 0x2 DUP9 MUL ADD DUP9 SSTORE POP POP POP JUMPDEST POP POP POP POP POP POP JUMP JUMPDEST PUSH1 0x0 PUSH1 0x40 DUP3 ADD SWAP1 POP DUP2 DUP2 SUB PUSH1 0x0 DUP4 ADD MSTORE PUSH2 0x979 DUP2 DUP6 PUSH2 0x372 JUMP JUMPDEST SWAP1 POP PUSH2 0x988 PUSH1 0x20 DUP4 ADD DUP5 PUSH2 0x5C5 JUMP JUMPDEST SWAP4 SWAP3 POP POP POP JUMP INVALID LOG2 PUSH5 0x6970667358 0x22 SLT KECCAK256 DUP9 0xF PUSH17 0xD84FFF1BEC2C87819C05029CD1C03E149A 0xF6 0xC2 0xB3 DUP7 0xF8 0x27 SWAP5 0xB6 0x23 0xFB PUSH13 0x3864736F6C6343000814003300 "},"methodIdentifiers":{"anchorLedgerHash(string)":"85caaabd","getLatestLedgerHash()":"5d81d77f","lastUpdatedTimestamp()":"fbaf894c","latestLedgerHash()":"86bf223a","owner()":"8da5cb5b"}}}}}